{
  "contractName": "Tournament",
  "abi": [
    {
      "inputs": [],
      "stateMutability": "nonpayable",
      "type": "constructor"
    },
    {
      "anonymous": false,
      "inputs": [
        {
          "indexed": false,
          "internalType": "uint256",
          "name": "matchNumber",
          "type": "uint256"
        },
        {
          "indexed": false,
          "internalType": "uint256",
          "name": "winnerId",
          "type": "uint256"
        },
        {
          "indexed": false,
          "internalType": "uint256",
          "name": "winnerScore",
          "type": "uint256"
        },
        {
          "indexed": false,
          "internalType": "uint256",
          "name": "loserId",
          "type": "uint256"
        },
        {
          "indexed": false,
          "internalType": "uint256",
          "name": "loserScore",
          "type": "uint256"
        }
      ],
      "name": "MatchRecorded",
      "type": "event"
    },
    {
      "inputs": [],
      "name": "matchCount",
      "outputs": [
        {
          "internalType": "uint256",
          "name": "",
          "type": "uint256"
        }
      ],
      "stateMutability": "view",
      "type": "function",
      "constant": true
    },
    {
      "inputs": [
        {
          "internalType": "uint256",
          "name": "",
          "type": "uint256"
        }
      ],
      "name": "matches",
      "outputs": [
        {
          "internalType": "uint256",
          "name": "matchNumber",
          "type": "uint256"
        },
        {
          "internalType": "uint256",
          "name": "winnerId",
          "type": "uint256"
        },
        {
          "internalType": "uint256",
          "name": "winnerScore",
          "type": "uint256"
        },
        {
          "internalType": "uint256",
          "name": "loserId",
          "type": "uint256"
        },
        {
          "internalType": "uint256",
          "name": "loserScore",
          "type": "uint256"
        }
      ],
      "stateMutability": "view",
      "type": "function",
      "constant": true
    },
    {
      "inputs": [],
      "name": "owner",
      "outputs": [
        {
          "internalType": "address",
          "name": "",
          "type": "address"
        }
      ],
      "stateMutability": "view",
      "type": "function",
      "constant": true
    },
    {
      "inputs": [
        {
          "internalType": "uint256",
          "name": "winnerId",
          "type": "uint256"
        },
        {
          "internalType": "uint256",
          "name": "winnerScore",
          "type": "uint256"
        },
        {
          "internalType": "uint256",
          "name": "loserId",
          "type": "uint256"
        },
        {
          "internalType": "uint256",
          "name": "loserScore",
          "type": "uint256"
        }
      ],
      "name": "recordMatch",
      "outputs": [],
      "stateMutability": "nonpayable",
      "type": "function"
    },
    {
      "inputs": [
        {
          "internalType": "uint256",
          "name": "matchNumber",
          "type": "uint256"
        }
      ],
      "name": "getMatch",
      "outputs": [
        {
          "internalType": "uint256",
          "name": "winnerId",
          "type": "uint256"
        },
        {
          "internalType": "uint256",
          "name": "winnerScore",
          "type": "uint256"
        },
        {
          "internalType": "uint256",
          "name": "loserId",
          "type": "uint256"
        },
        {
          "internalType": "uint256",
          "name": "loserScore",
          "type": "uint256"
        }
      ],
      "stateMutability": "view",
      "type": "function",
      "constant": true
    }
  ],
  "bytecode": "0x608060405234801561001057600080fd5b5033600260006101000a81548173ffffffffffffffffffffffffffffffffffffffff021916908373ffffffffffffffffffffffffffffffffffffffff16021790555061065a806100616000396000f3fe608060405234801561001057600080fd5b50600436106100575760003560e01c80633d092b3d1461005c5780634768d4ef1461008f57806349727dbf146100c357806379c4264b146100df5780638da5cb5b146100fd575b600080fd5b61007660048036038101906100719190610370565b61011b565b60405161008694939291906104b0565b60405180910390f35b6100a960048036038101906100a49190610370565b610198565b6040516100ba9594939291906104f5565b60405180910390f35b6100dd60048036038101906100d89190610399565b6101ce565b005b6100e761032f565b6040516100f49190610495565b60405180910390f35b610105610335565b604051610112919061045a565b60405180910390f35b60008060008060008060008781526020019081526020016000206040518060a001604052908160008201548152602001600182015481526020016002820154815260200160038201548152602001600482015481525050905080602001518160400151826060015183608001519450945094509450509193509193565b60006020528060005260406000206000915090508060000154908060010154908060020154908060030154908060040154905085565b600260009054906101000a900473ffffffffffffffffffffffffffffffffffffffff1673ffffffffffffffffffffffffffffffffffffffff163373ffffffffffffffffffffffffffffffffffffffff161461025e576040517f08c379a000000000000000000000000000000000000000000000000000000000815260040161025590610475565b60405180910390fd5b6001600081548092919061027190610595565b91905055506040518060a00160405280600154815260200185815260200184815260200183815260200182815250600080600154815260200190815260200160002060008201518160000155602082015181600101556040820151816002015560608201518160030155608082015181600401559050507fd3b32ed413d47b5e7cd09f63b7e704e9dcb0898a3372df9c5306d02899d2ed7d600154858585856040516103219594939291906104f5565b60405180910390a150505050565b60015481565b600260009054906101000a900473ffffffffffffffffffffffffffffffffffffffff1681565b60008135905061036a8161060d565b92915050565b60006020828403121561038257600080fd5b60006103908482850161035b565b91505092915050565b600080600080608085870312156103af57600080fd5b60006103bd8782880161035b565b94505060206103ce8782880161035b565b93505060406103df8782880161035b565b92505060606103f08782880161035b565b91505092959194509250565b61040581610559565b82525050565b6000610418601783610548565b91507f43616c6c6572206973206e6f7420746865206f776e65720000000000000000006000830152602082019050919050565b6104548161058b565b82525050565b600060208201905061046f60008301846103fc565b92915050565b6000602082019050818103600083015261048e8161040b565b9050919050565b60006020820190506104aa600083018461044b565b92915050565b60006080820190506104c5600083018761044b565b6104d2602083018661044b565b6104df604083018561044b565b6104ec606083018461044b565b95945050505050565b600060a08201905061050a600083018861044b565b610517602083018761044b565b610524604083018661044b565b610531606083018561044b565b61053e608083018461044b565b9695505050505050565b600082825260208201905092915050565b60006105648261056b565b9050919050565b600073ffffffffffffffffffffffffffffffffffffffff82169050919050565b6000819050919050565b60006105a08261058b565b91507fffffffffffffffffffffffffffffffffffffffffffffffffffffffffffffffff8214156105d3576105d26105de565b5b600182019050919050565b7f4e487b7100000000000000000000000000000000000000000000000000000000600052601160045260246000fd5b6106168161058b565b811461062157600080fd5b5056fea26469706673582212200b89198c3b4cd9b7846256f9ab18cc9108526378eb5f625b31c21c68e02e040a64736f6c63430008000033",
  "immutableReferences": {},
  "source": "// SPDX-License-Identifier: MIT\npragma solidity ^0.8.0;\n\ncontract Tournament {\n    // \n    struct Match {\n        uint256 matchNumber;\n        uint256 winnerId;\n        uint256 winnerScore;\n        uint256 loserId;\n        uint256 loserScore;\n    }\n\n    // \n    mapping(uint256 => Match) public matches;\n\n    // \n    uint256 public matchCount;\n\n    // \n    address public owner;\n\n    // \n    event MatchRecorded(\n        uint256 matchNumber,\n        uint256 winnerId,\n        uint256 winnerScore,\n        uint256 loserId,\n        uint256 loserScore\n    );\n\n    // \n    modifier onlyOwner() {\n        require(msg.sender == owner, \"Caller is not the owner\");\n        _;\n    }\n\n    // \n    constructor() {\n        owner = msg.sender;\n    }\n\n    //  \n    function recordMatch(\n        uint256 winnerId,\n        uint256 winnerScore,\n        uint256 loserId,\n        uint256 loserScore\n    ) public onlyOwner {\n        matchCount++;\n        matches[matchCount] = Match({\n            matchNumber: matchCount,\n            winnerId: winnerId,\n            winnerScore: winnerScore,\n            loserId: loserId,\n            loserScore: loserScore\n        });\n\n        // MatchRecorded\n        emit MatchRecorded(\n            matchCount,\n            winnerId,\n            winnerScore,\n            loserId,\n            loserScore\n        );\n    }\n\n    // \n    function getMatch(uint256 matchNumber) public view returns (\n        uint256 winnerId,\n        uint256 winnerScore,\n        uint256 loserId,\n        uint256 loserScore\n    ) {\n        Match memory m = matches[matchNumber];\n        return (m.winnerId, m.winnerScore, m.loserId, m.loserScore);\n    }\n}\n",
  "sourcePath": "/app/contracts/Tournament.sol",
  "compiler": {
    "name": "solc",
    "version": "0.8.0+commit.c7dfd78e.Emscripten.clang"
  },
  "schemaVersion": "3.4.16",
  "updatedAt": "2024-12-14T16:33:09.664Z",
  "networkType": "ethereum",
  "devdoc": {
    "kind": "dev",
    "methods": {},
    "version": 1
  },
  "userdoc": {
    "kind": "user",
    "methods": {},
    "version": 1
  }
}